#!/bin/bash
#!/bin/bash
curl --url "http://127.0.0.1:7778" --data "{\"coin\":\"BTC\",\"method\":\"signrawtransaction\",\"params\":[\"0100000008571ec5afd602f294f3eb95adb83da8894399f9de1a72ed85afc913393afbf3f13000000000ffffffffa20dc04e8a4cc6c619f0857e5a24b527db7ab473a0cd051632a3429841c798680700000000ffffffffeb1bcb46fcbdf97d28be1350254d010d1581a0dc0b7115034b1a23d9f14d7b700400000000ffffffffce3cba6588e17a889264daf868582a46853313a4bff8e64bd048a259eb8f2f140700000000ffffffff54505b1507c71de8cdf6c58ad8c2c6864a48681de2326b60f3d3506f8464d33b0000000000ffffffffbcf7cc97c0e064ac8c3839f46bd6c884edb390625c4975f16864376417f1ce5c0700000000ffffffffc011a2d208bb03f88c9c13a9ebeb9041149d72d26121cf4378ced82df462c8ea0400000000fffffffffb1be8356069642320d9f9b4c4d10ce1ebad59f89b78310988ae5abd34a2253d0100000000ffffffff0c70170000000000002321020e46e79a2a8d12b9b5d12c7a91adb4e454edfae43c0a0cb805427d2ac7613fd9ac7017000000000000232103b7621b44118017a16043f19b30cc8a4cfe068ac4e42417bae16ba460c80f3828ac7017000000000000232102ebfc784a4ba768aad88d44d1045d240d47b26e248cafaf1c5169a42d7a61d344ac7017000000000000232103750cf30d739cd7632f77c1c02812dd7a7181628b0558058d4755838117e05339ac701700000000000023210394f3529d2e8cc69ffa7a2b55f3761e7be978fa1896ef4c55dc9c275e77e5bf5eac701700000000000023210243c1eeb3777af47187d542e5f8c84f0ac4b05cf5a7ad77faa8cb6d2d56db7823ac7017000000000000232102bb298844175640a34e908ffdfa2839f77aba3d5edadefee16beb107826e00063ac7017000000000000232102fa88e549b4b871498f892e527a5d57287916809f8cc3163f641d71c535e8df5aac70170000000000002321032f799e370f06476793a122fcd623db7804898fe5aef5572095cfee6353df34bfac7017000000000000232102c06fe5401faff4442ef87b7d1b56c2e5a214166615f9a2f2030c71b0cb067ae8ac70170000000000002321038ac67ca49a8169bcc5de83fe020071095a2c3b2bc4d1c17386977329758956d5ac00000000000000002b6a29000000000000000000000000000000000000000000000000000000000000000000000000524556530000000000\", [{\"txid\":\"6898c7419842a3321605cda073b47adb27b5245a7e85f019c6c64c8a4ec00da2\",\"vout\":7,\"scriptPubKey\":\"2103750cf30d739cd7632f77c1c02812dd7a7181628b0558058d4755838117e05339ac\"}, {\"txid\":\"707b4df1d9231a4b0315710bdca081150d014d255013be287df9bdfc46cb1beb\",\"vout\":4,\"scriptPubKey\":\"210394f3529d2e8cc69ffa7a2b55f3761e7be978fa1896ef4c55dc9c275e77e5bf5eac\"}, {\"txid\":\"142f8feb59a248d04be6f8bfa4133385462a5868f8da6492887ae18865ba3cce\",\"vout\":7,\"scriptPubKey\":\"210243c1eeb3777af47187d542e5f8c84f0ac4b05cf5a7ad77faa8cb6d2d56db7823ac\"}, {\"txid\":\"3bd364846f50d3f3606b32e21d68484a86c6c2d88ac5f6cde81dc707155b5054\",\"vout\":0,\"scriptPubKey\":\"2102bb298844175640a34e908ffdfa2839f77aba3d5edadefee16beb107826e00063ac\"}, {\"txid\":\"5ccef11764376468f175495c6290b3ed84c8d66bf439388cac64e0c097ccf7bc\",\"vout\":7,\"scriptPubKey\":\"2102fa88e549b4b871498f892e527a5d57287916809f8cc3163f641d71c535e8df5aac\"}, {\"txid\":\"eac862f42dd8ce7843cf2161d2729d144190ebeba9139c8cf803bb08d2a211c0\",\"vout\":4,\"scriptPubKey\":\"21032f799e370f06476793a122fcd623db7804898fe5aef5572095cfee6353df34bfac\"}, {\"txid\":\"3d25a234bd5aae880931789bf859adebe10cd1c4b4f9d9202364696035e81bfb\",\"vout\":1,\"scriptPubKey\":\"2102c06fe5401faff4442ef87b7d1b56c2e5a214166615f9a2f2030c71b0cb067ae8ac\"}] ]}"
